{
  "_format": "hh-sol-artifact-1",
  "contractName": "L2PublicSaleVault",
  "sourceName": "contracts/L2/vaults/L2PublicSaleVault.sol",
  "abi": [
    {
      "anonymous": false,
      "inputs": [
        {
          "indexed": false,
          "internalType": "address",
          "name": "l2Token",
          "type": "address"
        },
        {
          "indexed": true,
          "internalType": "address",
          "name": "from",
          "type": "address"
        },
        {
          "indexed": false,
          "internalType": "uint256",
          "name": "tier",
          "type": "uint256"
        }
      ],
      "name": "AddedWhiteList",
      "type": "event"
    },
    {
      "anonymous": false,
      "inputs": [
        {
          "indexed": false,
          "internalType": "address",
          "name": "l2Token",
          "type": "address"
        },
        {
          "indexed": true,
          "internalType": "address",
          "name": "from",
          "type": "address"
        },
        {
          "indexed": false,
          "internalType": "uint256",
          "name": "amount",
          "type": "uint256"
        }
      ],
      "name": "Claimed",
      "type": "event"
    },
    {
      "anonymous": false,
      "inputs": [
        {
          "indexed": false,
          "internalType": "address",
          "name": "l2Token",
          "type": "address"
        },
        {
          "indexed": true,
          "internalType": "address",
          "name": "from",
          "type": "address"
        },
        {
          "indexed": false,
          "internalType": "uint256",
          "name": "amount",
          "type": "uint256"
        },
        {
          "indexed": false,
          "internalType": "uint256",
          "name": "liquidityAmount",
          "type": "uint256"
        }
      ],
      "name": "DepositWithdrawal",
      "type": "event"
    },
    {
      "anonymous": false,
      "inputs": [
        {
          "indexed": false,
          "internalType": "address",
          "name": "l2Token",
          "type": "address"
        },
        {
          "indexed": true,
          "internalType": "address",
          "name": "from",
          "type": "address"
        },
        {
          "indexed": false,
          "internalType": "uint256",
          "name": "amount",
          "type": "uint256"
        }
      ],
      "name": "Deposited",
      "type": "event"
    },
    {
      "anonymous": false,
      "inputs": [
        {
          "indexed": false,
          "internalType": "address",
          "name": "l2Token",
          "type": "address"
        },
        {
          "indexed": true,
          "internalType": "address",
          "name": "from",
          "type": "address"
        },
        {
          "indexed": false,
          "internalType": "uint256",
          "name": "amountIn",
          "type": "uint256"
        },
        {
          "indexed": false,
          "internalType": "uint256",
          "name": "amountOut",
          "type": "uint256"
        }
      ],
      "name": "ExchangeSwap",
      "type": "event"
    },
    {
      "anonymous": false,
      "inputs": [
        {
          "indexed": false,
          "internalType": "address",
          "name": "l2Token",
          "type": "address"
        },
        {
          "indexed": true,
          "internalType": "address",
          "name": "from",
          "type": "address"
        },
        {
          "indexed": false,
          "internalType": "uint256",
          "name": "amount",
          "type": "uint256"
        }
      ],
      "name": "ExclusiveSaled",
      "type": "event"
    },
    {
      "anonymous": false,
      "inputs": [
        {
          "indexed": false,
          "internalType": "address",
          "name": "l2Token",
          "type": "address"
        },
        {
          "indexed": true,
          "internalType": "address",
          "name": "from",
          "type": "address"
        },
        {
          "indexed": false,
          "internalType": "uint256",
          "name": "amount",
          "type": "uint256"
        }
      ],
      "name": "Refunded",
      "type": "event"
    },
    {
      "anonymous": false,
      "inputs": [
        {
          "indexed": true,
          "internalType": "bytes32",
          "name": "role",
          "type": "bytes32"
        },
        {
          "indexed": true,
          "internalType": "bytes32",
          "name": "previousAdminRole",
          "type": "bytes32"
        },
        {
          "indexed": true,
          "internalType": "bytes32",
          "name": "newAdminRole",
          "type": "bytes32"
        }
      ],
      "name": "RoleAdminChanged",
      "type": "event"
    },
    {
      "anonymous": false,
      "inputs": [
        {
          "indexed": true,
          "internalType": "bytes32",
          "name": "role",
          "type": "bytes32"
        },
        {
          "indexed": true,
          "internalType": "address",
          "name": "account",
          "type": "address"
        },
        {
          "indexed": true,
          "internalType": "address",
          "name": "sender",
          "type": "address"
        }
      ],
      "name": "RoleGranted",
      "type": "event"
    },
    {
      "anonymous": false,
      "inputs": [
        {
          "indexed": true,
          "internalType": "bytes32",
          "name": "role",
          "type": "bytes32"
        },
        {
          "indexed": true,
          "internalType": "address",
          "name": "account",
          "type": "address"
        },
        {
          "indexed": true,
          "internalType": "address",
          "name": "sender",
          "type": "address"
        }
      ],
      "name": "RoleRevoked",
      "type": "event"
    },
    {
      "anonymous": false,
      "inputs": [
        {
          "indexed": false,
          "internalType": "address",
          "name": "newInitializer",
          "type": "address"
        }
      ],
      "name": "SetInitializer",
      "type": "event"
    },
    {
      "anonymous": false,
      "inputs": [
        {
          "indexed": false,
          "internalType": "address",
          "name": "l2Token",
          "type": "address"
        },
        {
          "indexed": false,
          "internalType": "address",
          "name": "newAdmin",
          "type": "address"
        }
      ],
      "name": "SetVaultAdmin",
      "type": "event"
    },
    {
      "inputs": [],
      "name": "ADMIN_ROLE",
      "outputs": [
        {
          "internalType": "bytes32",
          "name": "",
          "type": "bytes32"
        }
      ],
      "stateMutability": "view",
      "type": "function"
    },
    {
      "inputs": [],
      "name": "DEFAULT_ADMIN_ROLE",
      "outputs": [
        {
          "internalType": "bytes32",
          "name": "",
          "type": "bytes32"
        }
      ],
      "stateMutability": "view",
      "type": "function"
    },
    {
      "inputs": [],
      "name": "POLICY_ROLE",
      "outputs": [
        {
          "internalType": "bytes32",
          "name": "",
          "type": "bytes32"
        }
      ],
      "stateMutability": "view",
      "type": "function"
    },
    {
      "inputs": [
        {
          "internalType": "address",
          "name": "account",
          "type": "address"
        }
      ],
      "name": "addAdmin",
      "outputs": [],
      "stateMutability": "nonpayable",
      "type": "function"
    },
    {
      "inputs": [
        {
          "internalType": "address",
          "name": "_l2token",
          "type": "address"
        }
      ],
      "name": "addWhiteList",
      "outputs": [],
      "stateMutability": "nonpayable",
      "type": "function"
    },
    {
      "inputs": [
        {
          "internalType": "address",
          "name": "",
          "type": "address"
        }
      ],
      "name": "aliveImplementation",
      "outputs": [
        {
          "internalType": "bool",
          "name": "",
          "type": "bool"
        }
      ],
      "stateMutability": "view",
      "type": "function"
    },
    {
      "inputs": [
        {
          "internalType": "address",
          "name": "_l2token",
          "type": "address"
        },
        {
          "internalType": "address",
          "name": "_account",
          "type": "address"
        }
      ],
      "name": "calcul1RoundAmount",
      "outputs": [
        {
          "internalType": "uint256",
          "name": "",
          "type": "uint256"
        }
      ],
      "stateMutability": "view",
      "type": "function"
    },
    {
      "inputs": [
        {
          "internalType": "address",
          "name": "_l2token",
          "type": "address"
        },
        {
          "internalType": "address",
          "name": "_account",
          "type": "address"
        },
        {
          "internalType": "uint256",
          "name": "_round",
          "type": "uint256"
        }
      ],
      "name": "calculClaimAmount",
      "outputs": [
        {
          "internalType": "uint256",
          "name": "_reward",
          "type": "uint256"
        },
        {
          "internalType": "uint256",
          "name": "_totalClaim",
          "type": "uint256"
        },
        {
          "internalType": "uint256",
          "name": "_refundAmount",
          "type": "uint256"
        }
      ],
      "stateMutability": "view",
      "type": "function"
    },
    {
      "inputs": [
        {
          "internalType": "address",
          "name": "_l2token",
          "type": "address"
        },
        {
          "internalType": "address",
          "name": "_account",
          "type": "address"
        },
        {
          "internalType": "uint256",
          "name": "_amount",
          "type": "uint256"
        }
      ],
      "name": "calculOpenSaleAmount",
      "outputs": [
        {
          "internalType": "uint256",
          "name": "",
          "type": "uint256"
        }
      ],
      "stateMutability": "view",
      "type": "function"
    },
    {
      "inputs": [
        {
          "internalType": "address",
          "name": "_l2token",
          "type": "address"
        },
        {
          "internalType": "uint256",
          "name": "_amount",
          "type": "uint256"
        }
      ],
      "name": "calculPayToken",
      "outputs": [
        {
          "internalType": "uint256",
          "name": "",
          "type": "uint256"
        }
      ],
      "stateMutability": "view",
      "type": "function"
    },
    {
      "inputs": [
        {
          "internalType": "address",
          "name": "_l2token",
          "type": "address"
        },
        {
          "internalType": "uint256",
          "name": "_amount",
          "type": "uint256"
        }
      ],
      "name": "calculSaleToken",
      "outputs": [
        {
          "internalType": "uint256",
          "name": "",
          "type": "uint256"
        }
      ],
      "stateMutability": "view",
      "type": "function"
    },
    {
      "inputs": [
        {
          "internalType": "address",
          "name": "_l2token",
          "type": "address"
        },
        {
          "internalType": "address",
          "name": "_account",
          "type": "address"
        }
      ],
      "name": "calculTier",
      "outputs": [
        {
          "internalType": "uint8",
          "name": "",
          "type": "uint8"
        }
      ],
      "stateMutability": "view",
      "type": "function"
    },
    {
      "inputs": [
        {
          "internalType": "address",
          "name": "_l2token",
          "type": "address"
        },
        {
          "internalType": "address",
          "name": "_account",
          "type": "address"
        },
        {
          "internalType": "uint8",
          "name": "tier",
          "type": "uint8"
        }
      ],
      "name": "calculTierAmount",
      "outputs": [
        {
          "internalType": "uint256",
          "name": "",
          "type": "uint256"
        }
      ],
      "stateMutability": "view",
      "type": "function"
    },
    {
      "inputs": [],
      "name": "changeTick",
      "outputs": [
        {
          "internalType": "int24",
          "name": "",
          "type": "int24"
        }
      ],
      "stateMutability": "view",
      "type": "function"
    },
    {
      "inputs": [
        {
          "internalType": "address",
          "name": "_l2token",
          "type": "address"
        }
      ],
      "name": "claim",
      "outputs": [],
      "stateMutability": "nonpayable",
      "type": "function"
    },
    {
      "inputs": [
        {
          "internalType": "address",
          "name": "",
          "type": "address"
        }
      ],
      "name": "claimInfo",
      "outputs": [
        {
          "internalType": "uint256",
          "name": "totalClaimCounts",
          "type": "uint256"
        },
        {
          "internalType": "uint256",
          "name": "firstClaimPercent",
          "type": "uint256"
        },
        {
          "internalType": "uint256",
          "name": "firstClaimTime",
          "type": "uint256"
        },
        {
          "internalType": "uint256",
          "name": "secondClaimTime",
          "type": "uint256"
        },
        {
          "internalType": "uint256",
          "name": "claimInterval",
          "type": "uint256"
        }
      ],
      "stateMutability": "view",
      "type": "function"
    },
    {
      "inputs": [
        {
          "internalType": "address",
          "name": "",
          "type": "address"
        },
        {
          "internalType": "uint256",
          "name": "",
          "type": "uint256"
        }
      ],
      "name": "claimPercents",
      "outputs": [
        {
          "internalType": "uint256",
          "name": "",
          "type": "uint256"
        }
      ],
      "stateMutability": "view",
      "type": "function"
    },
    {
      "inputs": [
        {
          "internalType": "address",
          "name": "",
          "type": "address"
        },
        {
          "internalType": "uint256",
          "name": "",
          "type": "uint256"
        }
      ],
      "name": "claimTimes",
      "outputs": [
        {
          "internalType": "uint256",
          "name": "",
          "type": "uint256"
        }
      ],
      "stateMutability": "view",
      "type": "function"
    },
    {
      "inputs": [
        {
          "internalType": "address",
          "name": "_l2token",
          "type": "address"
        }
      ],
      "name": "currentRound",
      "outputs": [
        {
          "internalType": "uint256",
          "name": "round",
          "type": "uint256"
        }
      ],
      "stateMutability": "view",
      "type": "function"
    },
    {
      "inputs": [],
      "name": "delayTime",
      "outputs": [
        {
          "internalType": "uint256",
          "name": "",
          "type": "uint256"
        }
      ],
      "stateMutability": "view",
      "type": "function"
    },
    {
      "inputs": [
        {
          "internalType": "address",
          "name": "_l2token",
          "type": "address"
        }
      ],
      "name": "depositWithdraw",
      "outputs": [],
      "stateMutability": "nonpayable",
      "type": "function"
    },
    {
      "inputs": [
        {
          "internalType": "address",
          "name": "",
          "type": "address"
        },
        {
          "internalType": "uint256",
          "name": "",
          "type": "uint256"
        }
      ],
      "name": "depositors",
      "outputs": [
        {
          "internalType": "address",
          "name": "",
          "type": "address"
        }
      ],
      "stateMutability": "view",
      "type": "function"
    },
    {
      "inputs": [
        {
          "internalType": "address",
          "name": "_l2token",
          "type": "address"
        },
        {
          "internalType": "uint256",
          "name": "amountIn",
          "type": "uint256"
        }
      ],
      "name": "exchangeWTONtoTOS",
      "outputs": [],
      "stateMutability": "nonpayable",
      "type": "function"
    },
    {
      "inputs": [
        {
          "internalType": "bytes32",
          "name": "role",
          "type": "bytes32"
        }
      ],
      "name": "getRoleAdmin",
      "outputs": [
        {
          "internalType": "bytes32",
          "name": "",
          "type": "bytes32"
        }
      ],
      "stateMutability": "view",
      "type": "function"
    },
    {
      "inputs": [
        {
          "internalType": "bytes32",
          "name": "role",
          "type": "bytes32"
        },
        {
          "internalType": "address",
          "name": "account",
          "type": "address"
        }
      ],
      "name": "grantRole",
      "outputs": [],
      "stateMutability": "nonpayable",
      "type": "function"
    },
    {
      "inputs": [
        {
          "internalType": "address",
          "name": "_l2token",
          "type": "address"
        }
      ],
      "name": "hardcapCalcul",
      "outputs": [
        {
          "internalType": "uint256",
          "name": "",
          "type": "uint256"
        }
      ],
      "stateMutability": "view",
      "type": "function"
    },
    {
      "inputs": [
        {
          "internalType": "bytes32",
          "name": "role",
          "type": "bytes32"
        },
        {
          "internalType": "address",
          "name": "account",
          "type": "address"
        }
      ],
      "name": "hasRole",
      "outputs": [
        {
          "internalType": "bool",
          "name": "",
          "type": "bool"
        }
      ],
      "stateMutability": "view",
      "type": "function"
    },
    {
      "inputs": [
        {
          "internalType": "address",
          "name": "account",
          "type": "address"
        }
      ],
      "name": "isAdmin",
      "outputs": [
        {
          "internalType": "bool",
          "name": "",
          "type": "bool"
        }
      ],
      "stateMutability": "view",
      "type": "function"
    },
    {
      "inputs": [],
      "name": "l1burnVault",
      "outputs": [
        {
          "internalType": "address",
          "name": "",
          "type": "address"
        }
      ],
      "stateMutability": "view",
      "type": "function"
    },
    {
      "inputs": [],
      "name": "l2Bridge",
      "outputs": [
        {
          "internalType": "address",
          "name": "",
          "type": "address"
        }
      ],
      "stateMutability": "view",
      "type": "function"
    },
    {
      "inputs": [],
      "name": "l2ProjectManager",
      "outputs": [
        {
          "internalType": "address",
          "name": "",
          "type": "address"
        }
      ],
      "stateMutability": "view",
      "type": "function"
    },
    {
      "inputs": [],
      "name": "liquidityVault",
      "outputs": [
        {
          "internalType": "address",
          "name": "",
          "type": "address"
        }
      ],
      "stateMutability": "view",
      "type": "function"
    },
    {
      "inputs": [],
      "name": "lockTOS",
      "outputs": [
        {
          "internalType": "address",
          "name": "",
          "type": "address"
        }
      ],
      "stateMutability": "view",
      "type": "function"
    },
    {
      "inputs": [
        {
          "internalType": "address",
          "name": "",
          "type": "address"
        }
      ],
      "name": "manageInfo",
      "outputs": [
        {
          "internalType": "uint256",
          "name": "set1rdTokenAmount",
          "type": "uint256"
        },
        {
          "internalType": "uint256",
          "name": "set2rdTokenAmount",
          "type": "uint256"
        },
        {
          "internalType": "uint256",
          "name": "saleTokenPrice",
          "type": "uint256"
        },
        {
          "internalType": "uint256",
          "name": "tonPrice",
          "type": "uint256"
        },
        {
          "internalType": "uint256",
          "name": "hardCap",
          "type": "uint256"
        },
        {
          "internalType": "uint256",
          "name": "changeTOS",
          "type": "uint256"
        },
        {
          "internalType": "uint256",
          "name": "remainTON",
          "type": "uint256"
        },
        {
          "internalType": "int24",
          "name": "changeTick",
          "type": "int24"
        },
        {
          "internalType": "bool",
          "name": "exchangeTOS",
          "type": "bool"
        },
        {
          "internalType": "bool",
          "name": "adminWithdraw",
          "type": "bool"
        }
      ],
      "stateMutability": "view",
      "type": "function"
    },
    {
      "inputs": [],
      "name": "maxPer",
      "outputs": [
        {
          "internalType": "uint8",
          "name": "",
          "type": "uint8"
        }
      ],
      "stateMutability": "view",
      "type": "function"
    },
    {
      "inputs": [],
      "name": "minPer",
      "outputs": [
        {
          "internalType": "uint8",
          "name": "",
          "type": "uint8"
        }
      ],
      "stateMutability": "view",
      "type": "function"
    },
    {
      "inputs": [
        {
          "internalType": "address",
          "name": "_l2token",
          "type": "address"
        },
        {
          "internalType": "address",
          "name": "user",
          "type": "address"
        }
      ],
      "name": "openSaleUserAmount",
      "outputs": [
        {
          "internalType": "uint256",
          "name": "_realPayAmount",
          "type": "uint256"
        },
        {
          "internalType": "uint256",
          "name": "_realSaleAmount",
          "type": "uint256"
        },
        {
          "internalType": "uint256",
          "name": "_refundAmount",
          "type": "uint256"
        }
      ],
      "stateMutability": "view",
      "type": "function"
    },
    {
      "inputs": [],
      "name": "pauseProxy",
      "outputs": [
        {
          "internalType": "bool",
          "name": "",
          "type": "bool"
        }
      ],
      "stateMutability": "view",
      "type": "function"
    },
    {
      "inputs": [],
      "name": "poolFee",
      "outputs": [
        {
          "internalType": "uint24",
          "name": "",
          "type": "uint24"
        }
      ],
      "stateMutability": "view",
      "type": "function"
    },
    {
      "inputs": [
        {
          "internalType": "uint256",
          "name": "",
          "type": "uint256"
        }
      ],
      "name": "proxyImplementation",
      "outputs": [
        {
          "internalType": "address",
          "name": "",
          "type": "address"
        }
      ],
      "stateMutability": "view",
      "type": "function"
    },
    {
      "inputs": [],
      "name": "quoter",
      "outputs": [
        {
          "internalType": "address",
          "name": "",
          "type": "address"
        }
      ],
      "stateMutability": "view",
      "type": "function"
    },
    {
      "inputs": [
        {
          "internalType": "address",
          "name": "account",
          "type": "address"
        }
      ],
      "name": "removeAdmin",
      "outputs": [],
      "stateMutability": "nonpayable",
      "type": "function"
    },
    {
      "inputs": [
        {
          "internalType": "bytes32",
          "name": "role",
          "type": "bytes32"
        },
        {
          "internalType": "address",
          "name": "account",
          "type": "address"
        }
      ],
      "name": "renounceRole",
      "outputs": [],
      "stateMutability": "nonpayable",
      "type": "function"
    },
    {
      "inputs": [
        {
          "internalType": "bytes32",
          "name": "role",
          "type": "bytes32"
        },
        {
          "internalType": "address",
          "name": "account",
          "type": "address"
        }
      ],
      "name": "revokeRole",
      "outputs": [],
      "stateMutability": "nonpayable",
      "type": "function"
    },
    {
      "inputs": [
        {
          "internalType": "address",
          "name": "_l2token",
          "type": "address"
        },
        {
          "internalType": "uint256",
          "name": "_amount",
          "type": "uint256"
        }
      ],
      "name": "round1Sale",
      "outputs": [],
      "stateMutability": "nonpayable",
      "type": "function"
    },
    {
      "inputs": [
        {
          "internalType": "address",
          "name": "_l2token",
          "type": "address"
        },
        {
          "internalType": "uint256",
          "name": "_amount",
          "type": "uint256"
        }
      ],
      "name": "round2Sale",
      "outputs": [],
      "stateMutability": "nonpayable",
      "type": "function"
    },
    {
      "inputs": [
        {
          "internalType": "address",
          "name": "",
          "type": "address"
        }
      ],
      "name": "saleInfo",
      "outputs": [
        {
          "internalType": "uint256",
          "name": "total1rdSaleAmount",
          "type": "uint256"
        },
        {
          "internalType": "uint256",
          "name": "total1rdTONAmount",
          "type": "uint256"
        },
        {
          "internalType": "uint256",
          "name": "totalUsers",
          "type": "uint256"
        },
        {
          "internalType": "uint256",
          "name": "total1rdUsers",
          "type": "uint256"
        },
        {
          "internalType": "uint256",
          "name": "total2rdUsers",
          "type": "uint256"
        },
        {
          "internalType": "uint256",
          "name": "total2rdUsersClaim",
          "type": "uint256"
        }
      ],
      "stateMutability": "view",
      "type": "function"
    },
    {
      "inputs": [
        {
          "internalType": "bytes4",
          "name": "",
          "type": "bytes4"
        }
      ],
      "name": "selectorImplementation",
      "outputs": [
        {
          "internalType": "address",
          "name": "",
          "type": "address"
        }
      ],
      "stateMutability": "view",
      "type": "function"
    },
    {
      "inputs": [],
      "name": "stanTier1",
      "outputs": [
        {
          "internalType": "uint256",
          "name": "",
          "type": "uint256"
        }
      ],
      "stateMutability": "view",
      "type": "function"
    },
    {
      "inputs": [],
      "name": "stanTier2",
      "outputs": [
        {
          "internalType": "uint256",
          "name": "",
          "type": "uint256"
        }
      ],
      "stateMutability": "view",
      "type": "function"
    },
    {
      "inputs": [],
      "name": "stanTier3",
      "outputs": [
        {
          "internalType": "uint256",
          "name": "",
          "type": "uint256"
        }
      ],
      "stateMutability": "view",
      "type": "function"
    },
    {
      "inputs": [],
      "name": "stanTier4",
      "outputs": [
        {
          "internalType": "uint256",
          "name": "",
          "type": "uint256"
        }
      ],
      "stateMutability": "view",
      "type": "function"
    },
    {
      "inputs": [
        {
          "internalType": "bytes4",
          "name": "interfaceId",
          "type": "bytes4"
        }
      ],
      "name": "supportsInterface",
      "outputs": [
        {
          "internalType": "bool",
          "name": "",
          "type": "bool"
        }
      ],
      "stateMutability": "view",
      "type": "function"
    },
    {
      "inputs": [
        {
          "internalType": "address",
          "name": "",
          "type": "address"
        },
        {
          "internalType": "uint8",
          "name": "",
          "type": "uint8"
        }
      ],
      "name": "tiers",
      "outputs": [
        {
          "internalType": "uint256",
          "name": "",
          "type": "uint256"
        }
      ],
      "stateMutability": "view",
      "type": "function"
    },
    {
      "inputs": [
        {
          "internalType": "address",
          "name": "",
          "type": "address"
        },
        {
          "internalType": "uint8",
          "name": "",
          "type": "uint8"
        }
      ],
      "name": "tiers1stAccount",
      "outputs": [
        {
          "internalType": "uint256",
          "name": "",
          "type": "uint256"
        }
      ],
      "stateMutability": "view",
      "type": "function"
    },
    {
      "inputs": [
        {
          "internalType": "address",
          "name": "",
          "type": "address"
        },
        {
          "internalType": "uint8",
          "name": "",
          "type": "uint8"
        }
      ],
      "name": "tiersCalculAccount",
      "outputs": [
        {
          "internalType": "uint256",
          "name": "",
          "type": "uint256"
        }
      ],
      "stateMutability": "view",
      "type": "function"
    },
    {
      "inputs": [
        {
          "internalType": "address",
          "name": "",
          "type": "address"
        },
        {
          "internalType": "uint8",
          "name": "",
          "type": "uint8"
        }
      ],
      "name": "tiersPercents",
      "outputs": [
        {
          "internalType": "uint256",
          "name": "",
          "type": "uint256"
        }
      ],
      "stateMutability": "view",
      "type": "function"
    },
    {
      "inputs": [
        {
          "internalType": "address",
          "name": "",
          "type": "address"
        },
        {
          "internalType": "uint8",
          "name": "",
          "type": "uint8"
        }
      ],
      "name": "tiersWhiteList",
      "outputs": [
        {
          "internalType": "uint256",
          "name": "",
          "type": "uint256"
        }
      ],
      "stateMutability": "view",
      "type": "function"
    },
    {
      "inputs": [
        {
          "internalType": "address",
          "name": "",
          "type": "address"
        }
      ],
      "name": "timeInfo",
      "outputs": [
        {
          "internalType": "uint256",
          "name": "deployTime",
          "type": "uint256"
        },
        {
          "internalType": "uint256",
          "name": "snapshot",
          "type": "uint256"
        },
        {
          "internalType": "uint256",
          "name": "whiteListStartTime",
          "type": "uint256"
        },
        {
          "internalType": "uint256",
          "name": "whiteListEndTime",
          "type": "uint256"
        },
        {
          "internalType": "uint256",
          "name": "round1StartTime",
          "type": "uint256"
        },
        {
          "internalType": "uint256",
          "name": "round1EndTime",
          "type": "uint256"
        },
        {
          "internalType": "uint256",
          "name": "round2StartTime",
          "type": "uint256"
        },
        {
          "internalType": "uint256",
          "name": "round2EndTime",
          "type": "uint256"
        }
      ],
      "stateMutability": "view",
      "type": "function"
    },
    {
      "inputs": [],
      "name": "ton",
      "outputs": [
        {
          "internalType": "address",
          "name": "",
          "type": "address"
        }
      ],
      "stateMutability": "view",
      "type": "function"
    },
    {
      "inputs": [],
      "name": "tos",
      "outputs": [
        {
          "internalType": "address",
          "name": "",
          "type": "address"
        }
      ],
      "stateMutability": "view",
      "type": "function"
    },
    {
      "inputs": [
        {
          "internalType": "address",
          "name": "",
          "type": "address"
        }
      ],
      "name": "totalDepositAmount",
      "outputs": [
        {
          "internalType": "uint256",
          "name": "",
          "type": "uint256"
        }
      ],
      "stateMutability": "view",
      "type": "function"
    },
    {
      "inputs": [
        {
          "internalType": "address",
          "name": "_l2token",
          "type": "address"
        }
      ],
      "name": "totalExpectOpenSaleAmountView",
      "outputs": [
        {
          "internalType": "uint256",
          "name": "",
          "type": "uint256"
        }
      ],
      "stateMutability": "view",
      "type": "function"
    },
    {
      "inputs": [
        {
          "internalType": "address",
          "name": "_l2token",
          "type": "address"
        }
      ],
      "name": "totalOpenPurchasedAmount",
      "outputs": [
        {
          "internalType": "uint256",
          "name": "",
          "type": "uint256"
        }
      ],
      "stateMutability": "view",
      "type": "function"
    },
    {
      "inputs": [
        {
          "internalType": "address",
          "name": "_l2token",
          "type": "address"
        }
      ],
      "name": "totalOpenSaleAmount",
      "outputs": [
        {
          "internalType": "uint256",
          "name": "",
          "type": "uint256"
        }
      ],
      "stateMutability": "view",
      "type": "function"
    },
    {
      "inputs": [
        {
          "internalType": "address",
          "name": "_l2token",
          "type": "address"
        }
      ],
      "name": "totalRound1NonSaleAmount",
      "outputs": [
        {
          "internalType": "uint256",
          "name": "",
          "type": "uint256"
        }
      ],
      "stateMutability": "view",
      "type": "function"
    },
    {
      "inputs": [
        {
          "internalType": "address",
          "name": "_l2token",
          "type": "address"
        },
        {
          "internalType": "address",
          "name": "user",
          "type": "address"
        }
      ],
      "name": "totalSaleUserAmount",
      "outputs": [
        {
          "internalType": "uint256",
          "name": "_realPayAmount",
          "type": "uint256"
        },
        {
          "internalType": "uint256",
          "name": "_realSaleAmount",
          "type": "uint256"
        },
        {
          "internalType": "uint256",
          "name": "_refundAmount",
          "type": "uint256"
        }
      ],
      "stateMutability": "view",
      "type": "function"
    },
    {
      "inputs": [
        {
          "internalType": "address",
          "name": "_l2token",
          "type": "address"
        }
      ],
      "name": "totalWhitelists",
      "outputs": [
        {
          "internalType": "uint256",
          "name": "",
          "type": "uint256"
        }
      ],
      "stateMutability": "view",
      "type": "function"
    },
    {
      "inputs": [
        {
          "internalType": "address",
          "name": "newAdmin",
          "type": "address"
        }
      ],
      "name": "transferAdmin",
      "outputs": [],
      "stateMutability": "nonpayable",
      "type": "function"
    },
    {
      "inputs": [],
      "name": "uniswapRouter",
      "outputs": [
        {
          "internalType": "address",
          "name": "",
          "type": "address"
        }
      ],
      "stateMutability": "view",
      "type": "function"
    },
    {
      "inputs": [
        {
          "internalType": "address",
          "name": "",
          "type": "address"
        },
        {
          "internalType": "address",
          "name": "",
          "type": "address"
        }
      ],
      "name": "user1rd",
      "outputs": [
        {
          "internalType": "bool",
          "name": "join",
          "type": "bool"
        },
        {
          "internalType": "uint8",
          "name": "tier",
          "type": "uint8"
        },
        {
          "internalType": "uint256",
          "name": "payAmount",
          "type": "uint256"
        },
        {
          "internalType": "uint256",
          "name": "saleAmount",
          "type": "uint256"
        }
      ],
      "stateMutability": "view",
      "type": "function"
    },
    {
      "inputs": [
        {
          "internalType": "address",
          "name": "",
          "type": "address"
        },
        {
          "internalType": "address",
          "name": "",
          "type": "address"
        }
      ],
      "name": "user2rd",
      "outputs": [
        {
          "internalType": "bool",
          "name": "join",
          "type": "bool"
        },
        {
          "internalType": "uint256",
          "name": "depositAmount",
          "type": "uint256"
        }
      ],
      "stateMutability": "view",
      "type": "function"
    },
    {
      "inputs": [
        {
          "internalType": "address",
          "name": "",
          "type": "address"
        },
        {
          "internalType": "address",
          "name": "",
          "type": "address"
        }
      ],
      "name": "userClaim",
      "outputs": [
        {
          "internalType": "bool",
          "name": "refund",
          "type": "bool"
        },
        {
          "internalType": "uint256",
          "name": "claimAmount",
          "type": "uint256"
        },
        {
          "internalType": "uint256",
          "name": "refundAmount",
          "type": "uint256"
        },
        {
          "internalType": "uint256",
          "name": "latestClaimedRound",
          "type": "uint256"
        }
      ],
      "stateMutability": "view",
      "type": "function"
    },
    {
      "inputs": [
        {
          "internalType": "address",
          "name": "",
          "type": "address"
        }
      ],
      "name": "vaultAdminOfToken",
      "outputs": [
        {
          "internalType": "address",
          "name": "",
          "type": "address"
        }
      ],
      "stateMutability": "view",
      "type": "function"
    },
    {
      "inputs": [],
      "name": "vestingFund",
      "outputs": [
        {
          "internalType": "address",
          "name": "",
          "type": "address"
        }
      ],
      "stateMutability": "view",
      "type": "function"
    },
    {
      "inputs": [
        {
          "internalType": "address",
          "name": "",
          "type": "address"
        },
        {
          "internalType": "uint256",
          "name": "",
          "type": "uint256"
        }
      ],
      "name": "whitelists",
      "outputs": [
        {
          "internalType": "address",
          "name": "",
          "type": "address"
        }
      ],
      "stateMutability": "view",
      "type": "function"
    }
  ],
  "bytecode": "0x60806040526014805463ff0000001916630100000017905534801561002357600080fd5b5061568180620000346000396000f3fe608060405234801561001057600080fd5b50600436106105145760003560e01c8063708666ad116102a1578063b005ed911161016b578063d01481a1116100e3578063dc560fcd11610097578063ef39b1491161007c578063ef39b14914610ee8578063f3b08cb914610efb578063f7e6e1ab14610f0e57600080fd5b8063dc560fcd14610ecc578063e7cd4a0414610ed557600080fd5b8063d547741f116100c8578063d547741f14610de4578063d7b0b29d14610df7578063d97830b114610e6757600080fd5b8063d01481a114610da6578063d13da44414610db957600080fd5b8063c0f22d4b1161013a578063c6bbd5a71161011f578063c6bbd5a714610d60578063cc48b94714610d73578063cf437a8f14610d8657600080fd5b8063c0f22d4b14610d3a578063c3ce874e14610d4d57600080fd5b8063b005ed9114610c5f578063b0a5ccd114610ceb578063b911135f14610cfe578063b9e982bb14610d2757600080fd5b806391d1485411610219578063a217fddf116101cd578063a7b23fcf116101b2578063a7b23fcf14610c26578063ac3e8aa914610c39578063ae1f6aaf14610c4c57600080fd5b8063a217fddf14610bf9578063a389595f14610c0157600080fd5b806397d78595116101fe57806397d7859514610ba55780639f32b29a14610bc55780639f87b77f14610bf057600080fd5b806391d1485414610b5957806396e6f43f14610b9257600080fd5b8063768b821f116102705780637fc46ba8116102555780637fc46ba814610ab357806389293f6514610adc57806389f395de14610b4657600080fd5b8063768b821f14610aa15780637e2eee5314610aaa57600080fd5b8063708666ad14610a41578063735de9f714610a5457806375829def14610a6757806375b238fc14610a7a57600080fd5b80632f2ff15d116103e257806352351e851161035a5780635cc9014b1161030e57806363a8fd89116102f357806363a8fd8914610a0e5780636e2272a214610a1b5780637048027514610a2e57600080fd5b80635cc9014b146109e85780636100a721146109fb57600080fd5b806355d6d39b1161033f57806355d6d39b146109975780635af39092146109c25780635b19e294146109d557600080fd5b806352351e8514610961578063550d01a31461097457600080fd5b806336568abe116103b15780634e6c4466116103965780634e6c44661461091c57806350d2a2761461092f57806351ebde6d1461095857600080fd5b806336568abe146108f6578063466c01b81461090957600080fd5b80632f2ff15d1461087057806330ba46591461088357806331bf28971461089657806333efca3d146108a957600080fd5b80631916e53411610490578063248a9ca3116104445780632a13ed1b116104295780632a13ed1b1461081f5780632ac9bab6146108325780632bde5bfb1461085d57600080fd5b8063248a9ca3146107e957806324d7806c1461080c57600080fd5b80631d823697116104755780631d8236971461079c5780631e83409a146107af57806322985246146107c257600080fd5b80631916e534146106fe5780631c53f2561461076457600080fd5b80630b7459eb116104e75780631576baf4116104cc5780631576baf4146106ad5780631784b3a6146106c05780631785f53c146106e957600080fd5b80630b7459eb14610649578063122697581461067457600080fd5b806301ffc9a714610519578063089fe6aa1461054157806308ac3fcb1461055e578063096cc4181461061b575b600080fd5b61052c610527366004614e65565b610f21565b60405190151581526020015b60405180910390f35b61054a610bb881565b60405162ffffff9091168152602001610538565b6105ca61056c366004614ea4565b601c6020526000908152604090208054600182015460028084015460038501546004860154600587015460068801546007909801549697959693959294919390929181900b9060ff630100000082048116916401000000009004168a565b604080519a8b5260208b0199909952978901969096526060880194909452608087019290925260a086015260c085015260020b60e08401521515610100830152151561012082015261014001610538565b61062e610629366004614ec1565b610f58565b60408051938452602084019290925290820152606001610538565b60065461065c906001600160a01b031681565b6040516001600160a01b039091168152602001610538565b61069f610682366004614f11565b602360209081526000928352604080842090915290825290205481565b604051908152602001610538565b61069f6106bb366004614ea4565b6111b9565b61069f6106ce366004614ea4565b6001600160a01b031660009081526018602052604090205490565b6106fc6106f7366004614ea4565b611204565b005b61074261070c366004614f4a565b6021602090815260009283526040808420909152908252902080546001820154600283015460039093015460ff90921692909184565b6040805194151585526020850193909352918301526060820152608001610538565b600e5461078a907501000000000000000000000000000000000000000000900460ff1681565b60405160ff9091168152602001610538565b61078a6107aa366004614f4a565b611296565b6106fc6107bd366004614ea4565b6116c0565b61069f7ffb5864e8ff833c3cb2d2d08505e82ff02a43554c74a35d4f5a64e8526127831181565b61069f6107f7366004614f78565b60009081526004602052604090206001015490565b61052c61081a366004614ea4565b611c6c565b6106fc61082d366004614f91565b611cac565b61069f610840366004614f11565b602660209081526000928352604080842090915290825290205481565b61069f61086b366004614ea4565b611cbb565b6106fc61087e366004614fbd565b611e0b565b61069f610891366004614ea4565b611e35565b6106fc6108a4366004614f91565b611ea2565b6108df6108b7366004614f4a565b6020808052600092835260408084209091529082529020805460019091015460ff9091169082565b604080519215158352602083019190915201610538565b6106fc610904366004614fbd565b6126d3565b61065c610917366004614f91565b61275b565b60095461065c906001600160a01b031681565b61065c61093d366004614e65565b6003602052600090815260409020546001600160a01b031681565b61069f60115481565b600c5461065c906001600160a01b031681565b61052c610982366004614ea4565b60026020526000908152604090205460ff1681565b61069f6109a5366004614f11565b602460209081526000928352604080842090915290825290205481565b61069f6109d0366004614f4a565b612793565b61065c6109e3366004614f91565b6127f6565b6106fc6109f6366004614f91565b612812565b61069f610a09366004614f91565b61281d565b60005461052c9060ff1681565b6106fc610a29366004614ea4565b6128da565b6106fc610a3c366004614ea4565b612cad565b60075461065c906001600160a01b031681565b60085461065c906001600160a01b031681565b6106fc610a75366004614ea4565b612d37565b61069f7fdf8b4c520ffe197c5343c6f5aec59570151ef9a492f2c624fd45ddde6135ec4281565b61069f60105481565b61069f60135481565b61065c610ac1366004614ea4565b6016602052600090815260409020546001600160a01b031681565b610b22610aea366004614f4a565b601f60209081526000928352604080842090915290825290208054600182015460029092015460ff8083169361010090930416919084565b60408051941515855260ff9093166020850152918301526060820152608001610538565b600a5461065c906001600160a01b031681565b61052c610b67366004614fbd565b60009182526004602090815260408084206001600160a01b0393909316845291905290205460ff1690565b61069f610ba0366004614fe2565b612e99565b61069f610bb3366004614ea4565b60156020526000908152604090205481565b61069f610bd3366004614f11565b602560209081526000928352604080842090915290825290205481565b61069f600f5481565b61069f600081565b600e5461078a9074010000000000000000000000000000000000000000900460ff1681565b61069f610c34366004614ea4565b6130b7565b61062e610c47366004614f4a565b613184565b600d5461065c906001600160a01b031681565b610cb0610c6d366004614ea4565b601b602052600090815260409020805460018201546002830154600384015460048501546005860154600687015460079097015495969495939492939192909188565b604080519889526020890197909752958701949094526060860192909252608085015260a084015260c083015260e082015261010001610538565b61069f610cf9366004614ea4565b613265565b61065c610d0c366004614f78565b6001602052600090815260409020546001600160a01b031681565b61069f610d35366004614ea4565b6133e5565b61069f610d48366004614f91565b6134e5565b61069f610d5b366004614f91565b613516565b60055461065c906001600160a01b031681565b600b5461065c906001600160a01b031681565b601454610d939060020b81565b60405160029190910b8152602001610538565b600e5461065c906001600160a01b031681565b61069f610dc7366004614f11565b602260209081526000928352604080842090915290825290205481565b6106fc610df2366004614fbd565b6135c1565b610e3a610e05366004614ea4565b601e60205260009081526040902080546001820154600283015460038401546004850154600590950154939492939192909186565b604080519687526020870195909552938501929092526060840152608083015260a082015260c001610538565b610ea4610e75366004614ea4565b601d60205260009081526040902080546001820154600283015460038401546004909401549293919290919085565b604080519586526020860194909452928401919091526060830152608082015260a001610538565b61069f60125481565b6106fc610ee3366004614ea4565b6135e6565b61062e610ef6366004614f4a565b613ab1565b61069f610f09366004614f91565b613b74565b61069f610f1c366004614ec1565b613b90565b60006001600160e01b03198216637965db0b60e01b1480610f5257506301ffc9a760e01b6001600160e01b03198316145b92915050565b6001600160a01b0383166000908152601d60209081526040808320815160a0810183528154815260018201549381019390935260028101549183018290526003810154606084015260040154608083015282918291421015610fc5576000806000935093509350506111b0565b8051851115610fdf576000806000935093509350506111b0565b6001600160a01b038088166000908152602160209081526040808320938a1683529281528282208351608081018552815460ff16151581526001820154928101929092526002810154938201939093526003909201546060830152806110458a8a613ab1565b925092505081600003611066576000806000965096509650505050506111b0565b81836020015110611085576000806000965096509650505050506111b0565b60006110908b6130b7565b905060008186600001511480156110a5575089155b156110cb5760208501516110b99085615043565b98509296509094506111b09350505050565b8960000361115b57816000036110eb57975091955093506111b092505050565b6127108660200151856110fe9190615056565b6111089190615083565b602086015190915061111b600184615043565b875161112990600190615043565b6111338488615043565b61113d9190615083565b6111479190615056565b6111519083615097565b6110b99190615043565b89600103611180576127108660200151856111769190615056565b6110b99190615083565b6127108660200151856111939190615056565b61119d9190615083565b602086015190915061111b60018c615043565b93509350939050565b6001600160a01b03811660009081526015602052604081205481906111df908490613516565b905060006111ec84613265565b9050808210156111fd575092915050565b9392505050565b61120d33611c6c565b6112695760405162461bcd60e51b815260206004820152602260248201527f41636365737369626c653a2043616c6c6572206973206e6f7420616e2061646d60448201526134b760f11b60648201526084015b60405180910390fd5b6112937fdf8b4c520ffe197c5343c6f5aec59570151ef9a492f2c624fd45ddde6135ec42826126d3565b50565b6009546000906001600160a01b0316806112d75760405162461bcd60e51b81526020600482015260026024820152612d1960f11b6044820152606401611260565b6001600160a01b038416600090815260226020908152604080832060018452909152812054908190036113315760405162461bcd60e51b81526020600482015260026024820152615a3160f01b6044820152606401611260565b6001600160a01b0385166000908152602260209081526040808320600284529091528120549081900361138b5760405162461bcd60e51b81526020600482015260026024820152615a3160f01b6044820152606401611260565b6001600160a01b038616600090815260226020908152604080832060038452909152812054908190036113e55760405162461bcd60e51b81526020600482015260026024820152615a3160f01b6044820152606401611260565b6001600160a01b0387166000908152602260209081526040808320600484529091528120549081900361143f5760405162461bcd60e51b81526020600482015260026024820152615a3160f01b6044820152606401611260565b6001600160a01b038881166000908152601b60209081526040808320815161010081018352815481526001820154938101849052600282015481840152600382015460608201526004808301546080830152600583015460a0830152600683015460c083015260079092015460e0820152600954925163277166bf60e11b81528d871692810192909252602482019390935291931690634ee2cd7e90604401602060405180830381865afa1580156114fb573d6000803e3d6000fd5b505050506040513d601f19601f8201168201806040525081019061151f91906150aa565b6001600160a01b038b1660009081526022602090815260408083206001845290915281205491925090821080159061157a57506001600160a01b038b1660009081526022602090815260408083206002845290915290205482105b15611587575060016116b2565b6001600160a01b038b1660009081526022602090815260408083206002845290915290205482108015906115de57506001600160a01b038b1660009081526022602090815260408083206003845290915290205482105b156115eb575060026116b2565b6001600160a01b038b16600090815260226020908152604080832060038452909152902054821080159061164257506001600160a01b038b1660009081526022602090815260408083206004845290915290205482105b1561164f575060036116b2565b6001600160a01b038b166000908152602260209081526040808320600484529091529020548210611682575060046116b2565b6001600160a01b038b166000908152602260209081526040808320600184529091529020548210156116b2575060005b9a9950505050505050505050565b6001600160a01b0381166000908152601d6020908152604091829020825160a08101845281548152600182015492810192909252600281015492820183905260038101546060830152600401546080820152904210156117625760405162461bcd60e51b815260206004820152600d60248201527f6e6f7420636c61696d54696d65000000000000000000000000000000000000006044820152606401611260565b6001600160a01b03821660008181526020808052604080832033808552908352818420948452602183528184209084529091528120906117a185611cbb565b9050806000036118b257815460ff1615156001036118015760405162461bcd60e51b815260206004820152601160248201527f616c726561647920676574526566756e640000000000000000000000000000006044820152606401611260565b6001600160a01b0385166000908152601f6020908152604080832033845290915281206001808601549082015491929161183b9190615097565b845460ff1916600117855560028501819055600b54909150611867906001600160a01b03163383613c31565b604080516001600160a01b03891681526020810183905233917fec1e5ed733e00f1a00915d56caef57b4f52312dde4f9b3165f213319a0da156b910160405180910390a25050611c65565b60008060006118c388336000610f58565b925092509250600082116119195760405162461bcd60e51b815260206004820152601260248201527f6e6f20707572636861736520616d6f756e7400000000000000000000000000006044820152606401611260565b600083116119555760405162461bcd60e51b81526020600482015260096024820152681b9bc81c995dd85c9960ba1b6044820152606401611260565b828560010154836119669190615043565b10156119b45760405162461bcd60e51b815260206004820152601460248201527f616c726561647920676574416c6c7265776172640000000000000000000000006044820152606401611260565b6040516370a0823160e01b815230600482015283906001600160a01b038a16906370a0823190602401602060405180830381865afa1580156119fa573d6000803e3d6000fd5b505050506040513d601f19601f82011682018060405250810190611a1e91906150aa565b1015611a6c5760405162461bcd60e51b815260206004820152601360248201527f646f6e7420686176652073616c65546f6b656e000000000000000000000000006044820152606401611260565b828560010154611a7c9190615097565b6001860155611a956001600160a01b0389163385613c31565b6001600160a01b0388166000908152601e60205260409020855460ff16158015611ac05750865460ff165b15611ae6576005810154611ad5906001615097565b6005820155855460ff191660011786555b600082118015611af857506002860154155b15611c1b57600b546040516370a0823160e01b81523060048201526001600160a01b03909116906370a0823190602401602060405180830381865afa158015611b45573d6000803e3d6000fd5b505050506040513d601f19601f82011682018060405250810190611b6991906150aa565b821115611bb85760405162461bcd60e51b815260206004820152601460248201527f646f6e74206861766520726566756e6420746f6e0000000000000000000000006044820152606401611260565b60028601829055600b54611bd6906001600160a01b03163384613c31565b604080516001600160a01b038b1681526020810184905233917fec1e5ed733e00f1a00915d56caef57b4f52312dde4f9b3165f213319a0da156b910160405180910390a25b604080516001600160a01b038b1681526020810186905233917ff7a40077ff7a04c7e61f6f26fb13774259ddf1b6bce9ecf26a8276cdd399268391015b60405180910390a2505050505b5050505050565b6001600160a01b03811660009081527f2fb794d17134dfdec181ddbac1babb5ab1eb140204ef4d982f294e7fc8b69022602052604081205460ff16610f52565b611cb7823383613d45565b5050565b6001600160a01b0381166000818152601e60209081526040808320815160c0808201845282548252600180840154838701526002808501548487015260038086015460608087019190915260048088015460808089019190915260059889015460a0808a01919091529c8c52601c8b52898c208a5161014081018c5281548152968101549b87019b909b528a8501549986019990995291890154908401528701549582019590955292850154968301969096526006840154958201959095526007909201549081900b60e083015260ff630100000082048116151561010084015264010000000090910416151561012082015290919082611dbb85611e35565b8360200151611dca9190615097565b9050600082608001518210611dff5760648360a0015183611deb9190615056565b611df59190615083565b9695505050505050565b50600095945050505050565b600082815260046020526040902060010154611e2681614094565b611e30838361409e565b505050565b6001600160a01b0381166000908152601560205260408120548190611e5b908490613516565b90506000611e6884613265565b905080821015611e90575050506001600160a01b031660009081526015602052604090205490565b611e9a848261281d565b949350505050565b8080600003611ed85760405162461bcd60e51b81526020600482015260026024820152615a3160f01b6044820152606401611260565b6001600160a01b0383166000818152601b60209081526040808320815161010081018352815481526001820154818501526002820154818401526003820154606082015260048201546080820152600582015460a0820152600682015460c082015260079091015460e08201908152948452601c90925290912091519091904211611fa55760405162461bcd60e51b815260206004820152601b60248201527f6e65656420746f20656e6420746865206465706f73697454696d6500000000006044820152606401611260565b6000611fb086611cbb565b9050600081116120025760405162461bcd60e51b815260206004820152601660248201527f646f6e27742070617373207468652068617264436170000000000000000000006044820152606401611260565b60078201546301000000900460ff16151560000361207b578481101561205a5760405162461bcd60e51b815260206004820152600d60248201526c30b6b7bab73a24b71037bb32b960991b6044820152606401611260565b6006820181905560078201805463ff000000191663010000001790556120bf565b84826006015410156120bf5760405162461bcd60e51b815260206004820152600d60248201526c30b6b7bab73a24b71037bb32b960991b6044820152606401611260565b600b54600a546040516307f43c1960e31b81526001600160a01b0392831660048201529116602482015260009073__$86989bec654fe21c5325a7b16e11ff34c5$__90633fa1e0c890604401602060405180830381865af4158015612128573d6000803e3d6000fd5b505050506040513d601f19601f8201168201806040525081019061214c91906150c3565b9050600080826001600160a01b0316633850c7bd6040518163ffffffff1660e01b815260040160e060405180830381865afa15801561218f573d6000803e3d6000fd5b505050506040513d601f19601f820116820180604052508101906121b39190615119565b5050505050915091506000826001600160a01b0316116122155760405162461bcd60e51b815260206004820152601060248201527f706f6f6c206e6f7420696e697469616c000000000000000000000000000000006044820152606401611260565b6000612222846078614140565b6040517fff9ceebd000000000000000000000000000000000000000000000000000000008152600282810b6004830152603c6024830152604482015290915073__$86989bec654fe21c5325a7b16e11ff34c5$__9063ff9ceebd90606401602060405180830381865af415801561229d573d6000803e3d6000fd5b505050506040513d601f19601f820116820180604052508101906122c191906151a3565b60020b8260020b126123155760405162461bcd60e51b815260206004820152601860248201527f6f766572206368616e676564207469636b2072616e67652e00000000000000006044820152606401611260565b600b54600a546007880154604051633e1644f160e11b8152600481018d90526001600160a01b038881166024830152938416604482015292909116606483015260020b6084820152600090819073__$86989bec654fe21c5325a7b16e11ff34c5$__90637c2c89e29060a401606060405180830381865af415801561239e573d6000803e3d6000fd5b505050506040513d601f19601f820116820180604052508101906123c291906151be565b92505091506000600560009054906101000a90046001600160a01b03166001600160a01b0316600b60009054906101000a90046001600160a01b0316600a60009054906101000a90046001600160a01b0316610bb88f60006040516024016124629594939291906001600160a01b03958616815293909416602084015262ffffff919091166040830152606082015260ff91909116608082015260a00190565b60408051601f198184030181529181526020820180516001600160e01b031663f7729d4360e01b179052516124979190615210565b6000604051808303816000865af19150503d80600081146124d4576040519150601f19603f3d011682016040523d82523d6000602084013e6124d9565b606091505b5091505060006124e8826142ff565b90506103e86124f9826103e3615056565b6125039190615083565b9050838110156125555760405162461bcd60e51b815260206004820152601060248201527f7072696365496d70616374206f766572000000000000000000000000000000006044820152606401611260565b60068a01548e908e90612569908290615043565b60068d01556040805161010081018252600b546001600160a01b039081168252600a54811660208301908152610bb8838501908152600754831660608501908152426080860190815260a0860188815260c087018b81528d871660e08901908152600854995163414bf38960e01b8152895189166004820152965188166024880152945162ffffff166044870152925186166064860152905160848501525160a48401525160c483015251821660e4820152919260009291169063414bf38990610104016020604051808303816000875af115801561264c573d6000803e3d6000fd5b505050506040513d601f19601f8201168201806040525081019061267091906150aa565b604080516001600160a01b03871681526020810186905290810182905290915033907f34c21668d9e0d31d289d483bfe1b46a335340504801ea7feebfbb347bc4fe5679060600160405180910390a2505050505050505050505050505050505050565b6001600160a01b03811633146127515760405162461bcd60e51b815260206004820152602f60248201527f416363657373436f6e74726f6c3a2063616e206f6e6c792072656e6f756e636560448201527f20726f6c657320666f722073656c6600000000000000000000000000000000006064820152608401611260565b611cb782826143a3565b6017602052816000526040600020818154811061277757600080fd5b6000918252602090912001546001600160a01b03169150829050565b6000806127a08484611296565b9050600060ff8216156127eb57815b60ff8116156127e1576127c3868683612e99565b6127cd9083615097565b9150806127d98161522c565b9150506127af565b509150610f529050565b506000949350505050565b6018602052816000526040600020818154811061277757600080fd5b611cb7823383614426565b6001600160a01b0382166000908152601c602090815260408083208151610140810183528154815260018201549381019390935260028082015492840183905260038201546060850181905260048301546080860152600583015460a0860152600683015460c08601526007909201549081900b60e085015260ff630100000082048116151561010086015264010000000090910416151561012084015283916128c79086615056565b6128d19190615083565b95945050505050565b6001600160a01b0381166000908152601c602052604090206007810154640100000000900460ff161515600114801590612924575060078101546301000000900460ff1615156001145b6129705760405162461bcd60e51b815260206004820152601a60248201527f6e656564207468652065786368616e676557544f4e746f544f530000000000006044820152606401611260565b6001600160a01b0382166000908152601e602052604081209061299284611cbb565b90506000816129a086611e35565b84600101546129af9190615097565b6129b99190615043565b600b546040516370a0823160e01b81523060048201529192506001600160a01b0316906370a0823190602401602060405180830381865afa158015612a02573d6000803e3d6000fd5b505050506040513d601f19601f82011682018060405250810190612a2691906150aa565b811115612a755760405162461bcd60e51b815260206004820152600d60248201527f686176656e277420746f6b656e000000000000000000000000000000000000006044820152606401611260565b60078401805464ff0000000019166401000000001790558254600090612a9a876111b9565b60018701548754612aab9190615097565b612ab59190615043565b612abf9190615043565b90508015612b5857600d54600e54604051631474f2a960e31b81526001600160a01b0389811660048301529182166024820152604481018490526000606482015260a06084820152600260a482015261060f60f31b60c482015291169063a3a795489060e401600060405180830381600087803b158015612b3f57600080fd5b505af1158015612b53573d6000803e3d6000fd5b505050505b600b546006546001600160a01b039182169163095ea7b39116612b8385678ac7230489e80000615097565b6040516001600160e01b031960e085901b1681526001600160a01b03909216600483015260248201526044016020604051808303816000875af1158015612bce573d6000803e3d6000fd5b505050506040513d601f19601f82011682018060405250810190612bf29190615249565b506006546040516315a27c3b60e31b81526001600160a01b038881166004830152602482018590529091169063ad13e1d890604401600060405180830381600087803b158015612c4157600080fd5b505af1158015612c55573d6000803e3d6000fd5b5050604080516001600160a01b038a168152602081018690529081018690523392507f4c2c0ab6abacae9e08e6f826eee15e2782e65aaa46fa6d77cbaec9c94247aad5915060600160405180910390a2505050505050565b612cb633611c6c565b612d0d5760405162461bcd60e51b815260206004820152602260248201527f41636365737369626c653a2043616c6c6572206973206e6f7420616e2061646d60448201526134b760f11b6064820152608401611260565b6112937fdf8b4c520ffe197c5343c6f5aec59570151ef9a492f2c624fd45ddde6135ec4282611e0b565b612d4033611c6c565b612d975760405162461bcd60e51b815260206004820152602260248201527f41636365737369626c653a2043616c6c6572206973206e6f7420616e2061646d60448201526134b760f11b6064820152608401611260565b6001600160a01b038116612ded5760405162461bcd60e51b815260206004820152601860248201527f41636365737369626c653a207a65726f206164647265737300000000000000006044820152606401611260565b6001600160a01b0381163303612e455760405162461bcd60e51b815260206004820152601660248201527f41636365737369626c653a2073616d652061646d696e000000000000000000006044820152606401611260565b612e6f7fdf8b4c520ffe197c5343c6f5aec59570151ef9a492f2c624fd45ddde6135ec4282611e0b565b6112937fdf8b4c520ffe197c5343c6f5aec59570151ef9a492f2c624fd45ddde6135ec42336126d3565b6001600160a01b038084166000818152601f602090815260408083209487168352938152838220845160808082018752825460ff8082161515845261010091829004811684870152600180860154858b0152600295860154606080870191909152988852601c87528988208a5161014081018c52815481528183015498810198909852808701549a88019a909a5260038a015498870198909852600489015492860192909252600588015460a0860152600688015460c08601526007909701549283900b60e08501526301000000830481161515968401969096526401000000009091049094161515610120820152835191939290918491901515148015612fa4575060008560ff16115b15613014576001600160a01b038716600081815260256020908152604080832060ff8a16808552908352818420549484526023835281842090845290915290205483516127109291612ff591615056565b612fff9190615083565b6130099190615083565b93506111fd92505050565b60ff8516156130aa576001600160a01b038716600090815260256020908152604080832060ff8916845290915281205461304f906001615097565b6001600160a01b038916600090815260236020908152604080832060ff8b168452909152902054845191925061271091839161308a91615056565b6130949190615083565b61309e9190615083565b94506111fd9350505050565b5060009695505050505050565b6001600160a01b0381166000908152601d60209081526040808320815160a0810183528154815260018201549381019390935260028101549183018290526003810154606084015260040154608083015242101561311457600091505b4281604001511115801561312b5750806060015142105b156131395760019150613170565b4281606001511161317057608081015160608201516131589042615043565b6131629190615083565b61316d906002615097565b91505b805182111561317e57805191505b50919050565b6001600160a01b0380831660009081526020808052604080832093851683529281528282208351808501909452805460ff1615801585526001909101549184019190915290918291829190806131dc57506020810151155b156131f25760008060009350935093505061325e565b600061320087876000613b90565b9050600061320e888361281d565b60208401519091506000808284101561323e5761322b8484615043565b90506132378b85613516565b9150613252565b8560200151935061324f8b84613516565b91505b92975095509093505050505b9250925092565b600080601b6000846001600160a01b03166001600160a01b03168152602001908152602001600020604051806101000160405290816000820154815260200160018201548152602001600282015481526020016003820154815260200160048201548152602001600582015481526020016006820154815260200160078201548152505090506000601c6000856001600160a01b03166001600160a01b0316815260200190815260200160002060405180610140016040529081600082015481526020016001820154815260200160028201548152602001600382015481526020016004820154815260200160058201548152602001600682015481526020016007820160009054906101000a900460020b60020b60020b81526020016007820160039054906101000a900460ff161515151581526020016007820160049054906101000a900460ff16151515158152505090508160a001514210156133cd57519392505050565b6133d6846133e5565b8160200151611e9a9190615097565b6001600160a01b0381166000818152601e60209081526040808320815160c0808201845282548252600180840154838701526002808501548487015260038086015460608087019190915260048088015460808089019190915260059889015460a0808a01919091529c8c52601c8b52898c208a5161014081018c528154808252978201549c81019c909c52808601549a8c019a909a5292890154918a01919091528701549088015293850154978601979097526006840154908501526007909201549081900b60e084015260ff6301000000820481161515610100850152640100000000909104161515610120830152805192939092611e9a91615043565b6019602052816000526040600020818154811061350157600080fd5b90600052602060002001600091509150505481565b6001600160a01b0382166000908152601c602090815260408083208151610140810183528154815260018201549381019390935260028082015492840183905260038201546060850181905260048301546080860152600583015460a0860152600683015460c08601526007909201549081900b60e085015260ff63010000008204811615156101008601526401000000009091041615156101208401528391906128c79086615056565b6000828152600460205260409020600101546135dc81614094565b611e3083836143a3565b6001600160a01b0381166000908152601b60209081526040918290208251610100810184528154815260018201549281019290925260028101549282018390526003810154606083015260048101546080830152600581015460a0830152600681015460c08301526007015460e0820152904210156136a75760405162461bcd60e51b815260206004820152601160248201527f6e6f742077686974656c69737454696d650000000000000000000000000000006044820152606401611260565b806060015142106136fa5760405162461bcd60e51b815260206004820152601160248201527f656e642077686974656c69737454696d650000000000000000000000000000006044820152606401611260565b60006137068333611296565b905060018160ff16101561375c5760405162461bcd60e51b815260206004820152601160248201527f6e65656420746f206d6f72652073544f530000000000000000000000000000006044820152606401611260565b6001600160a01b0383166000908152601f602090815260408083203384529091529020805460ff1615156001036137d55760405162461bcd60e51b815260206004820152601060248201527f616c726561647920617474656e646564000000000000000000000000000000006044820152606401611260565b6001600160a01b038416600081815260186020908152604080832080546001818101835591855283852001805473ffffffffffffffffffffffffffffffffffffffff191633179055855460ff8816610100810261ffff199092169190911782178755948452602483528184209484529390915290205461385491615097565b6001600160a01b038516600090815260246020908152604080832060ff871680855292529091209190915560040361398f576001600160a01b0384166000908152602560209081526040808320600484529091529020546138b6906001615097565b6001600160a01b038516600090815260256020908152604080832060048452909152808220929092556003815220546138f0906001615097565b6001600160a01b0385166000908152602560209081526040808320600384529091528082209290925560028152205461392a906001615097565b6001600160a01b0385166000908152602560209081526040808320600284529091528082209290925560018082529190205461396591615097565b6001600160a01b038516600090815260256020908152604080832060018452909152902055613a65565b8160ff166003036139ca576001600160a01b0384166000908152602560209081526040808320600384529091529020546138f0906001615097565b8160ff16600203613a05576001600160a01b03841660009081526025602090815260408083206002845290915290205461392a906001615097565b8160ff16600103613a65576001600160a01b03841660009081526025602090815260408083206001808552925290912054613a3f91615097565b6001600160a01b0385166000908152602560209081526040808320600184529091529020555b604080516001600160a01b038616815260ff8416602082015233917f80aaf28a2c7f80f586e64ede5c6c3b5433b8c6cf1351b6b51d8ab9febb8b5e7a910160405180910390a250505050565b6001600160a01b038083166000908152601f6020908152604080832093851683529281528282208351608081018552815460ff8082161580158452610100909204169382019390935260018201549481019490945260020154606084015290918291829190613b5e576000806000613b298989613184565b925092509250836040015183613b3f9190615097565b6060850151613b4e9084615097565b829650965096505050505061325e565b613b688686613184565b9350935093505061325e565b601a602052816000526040600020818154811061350157600080fd5b6001600160a01b0380841660009081526020808052604080832093861683529281528282208351808501909452805460ff1615158452600101549083018190529091908290613be0908590615097565b6001600160a01b03871660009081526015602052604081205491925090613c08908690615097565b82613c1289613265565b613c1c9190615056565b613c269190615083565b979650505050505050565b604080516001600160a01b038481166024830152604480830185905283518084039091018152606490920183526020820180516001600160e01b031663a9059cbb60e01b1790529151600092839290871691613c8d9190615210565b6000604051808303816000865af19150503d8060008114613cca576040519150601f19603f3d011682016040523d82523d6000602084013e613ccf565b606091505b5091509150818015613cf9575080511580613cf9575080806020019051810190613cf99190615249565b611c655760405162461bcd60e51b815260206004820152600f60248201527f5452414e534645525f4641494c454400000000000000000000000000000000006044820152606401611260565b826001600160a01b038116613d815760405162461bcd60e51b81526020600482015260026024820152612d1960f11b6044820152606401611260565b826001600160a01b038116613dbd5760405162461bcd60e51b81526020600482015260026024820152612d1960f11b6044820152606401611260565b8280600003613df35760405162461bcd60e51b81526020600482015260026024820152615a3160f01b6044820152606401611260565b6001600160a01b0386166000908152601b6020908152604091829020825161010081018452815481526001820154928101929092526002810154928201929092526003820154606082015260048201546080820152600582015460a0820152600682015460c0820181905260079092015460e082015290421015613eb95760405162461bcd60e51b815260206004820152600f60248201527f6e6f74206465706f73697454696d6500000000000000000000000000000000006044820152606401611260565b8060e001514210613f0c5760405162461bcd60e51b815260206004820152600f60248201527f656e64206465706f73697454696d6500000000000000000000000000000000006044820152606401611260565b6001600160a01b03808816600081815260208080526040808320948b168352938152838220928252601e905291909120815460ff1661402c576001600160a01b03898116600090815260176020908152604082208054600180820183559184529190922001805473ffffffffffffffffffffffffffffffffffffffff1916928b1692909217909155825460ff1916811783556004820154613fac91615097565b60048201556001600160a01b03808a166000908152601f60209081526040808320938c1683529281528282208351608081018552815460ff808216151583526101009091041692810192909252600181015493820184905260020154606082015291900361402a576002820154614024906001615097565b60028301555b505b86826001015461403c9190615097565b60018301556001600160a01b038916600090815260156020526040902054614065908890615097565b6001600160a01b038a16600090815260156020526040902055614089898989614800565b505050505050505050565b6112938133614b11565b60008281526004602090815260408083206001600160a01b038516845290915290205460ff16611cb75760008281526004602090815260408083206001600160a01b03851684529091529020805460ff191660011790556140fc3390565b6001600160a01b0316816001600160a01b0316837f2f8788117e7eff1d82e926ec794901d17c78024a50270940304540a733656f0d60405160405180910390a45050565b60008163ffffffff1660000361417d5760405162461bcd60e51b8152602060048201526002602482015261042560f41b6044820152606401611260565b60408051600280825260608201835260009260208301908036833701905050905082816000815181106141b2576141b261527a565b602002602001019063ffffffff16908163ffffffff16815250506000816001815181106141e1576141e161527a565b63ffffffff9092166020928302919091019091015260405163883bdbfd60e01b81526000906001600160a01b0386169063883bdbfd90614225908590600401615290565b600060405180830381865afa158015614242573d6000803e3d6000fd5b505050506040513d6000823e601f3d908101601f1916820160405261426a91908101906153a3565b5090506000816000815181106142825761428261527a565b60200260200101518260018151811061429d5761429d61527a565b60200260200101516142af919061546f565b90506142bf600386900b8261549c565b935060008160060b1280156142e357506142dd600386900b826154da565b60060b15155b156142f657836142f2816154fc565b9450505b50505092915050565b6000815160201461438f5760448251101561435c5760405162461bcd60e51b815260206004820152601060248201527f556e6578706563746564206572726f72000000000000000000000000000000006044820152606401611260565b600482019150818060200190518101906143769190615515565b60405162461bcd60e51b815260040161126091906155a9565b81806020019051810190610f5291906150aa565b60008281526004602090815260408083206001600160a01b038516845290915290205460ff1615611cb75760008281526004602090815260408083206001600160a01b0385168085529252808320805460ff1916905551339285917ff6391f5c32d9c69d2a47ea670b442974b53935d1edc7fd64eb21e047a839171b9190a45050565b826001600160a01b0381166144625760405162461bcd60e51b81526020600482015260026024820152612d1960f11b6044820152606401611260565b826001600160a01b03811661449e5760405162461bcd60e51b81526020600482015260026024820152612d1960f11b6044820152606401611260565b82806000036144d45760405162461bcd60e51b81526020600482015260026024820152615a3160f01b6044820152606401611260565b6001600160a01b0386166000908152601b60209081526040918290208251610100810184528154815260018201549281019290925260028101549282019290925260038201546060820152600482015460808201819052600583015460a0830152600683015460c083015260079092015460e08201529042101561459a5760405162461bcd60e51b815260206004820152601260248201527f6e6f7420726f756e643153616c6554696d6500000000000000000000000000006044820152606401611260565b8060a0015142106145ed5760405162461bcd60e51b815260206004820152601260248201527f656e6420726f756e643153616c6554696d6500000000000000000000000000006044820152606401611260565b6001600160a01b038088166000908152601f60209081526040808320938a16835292905220805460ff1615156001146146685760405162461bcd60e51b815260206004820152600c60248201527f6e6f2077686974656c69737400000000000000000000000000000000000000006044820152606401611260565b60006146748989611296565b905060006146828a89613516565b905060006146908b8b612793565b90508184600201546146a29190615097565b8110156146f15760405162461bcd60e51b815260206004820152600e60248201527f646f6e2774206f766572206275790000000000000000000000000000000000006044820152606401611260565b6001600160a01b038b166000908152601e602052604081206001860154909103614799576003810154614725906001615097565b6003820155600281015461473a906001615097565b60028201556001600160a01b038c16600090815260266020908152604080832060ff88168452909152902054614771906001615097565b6001600160a01b038d16600090815260266020908152604080832060ff891684529091529020555b8985600101546147a99190615097565b600186015560028501546147be908490615097565b600286015560018101546147d3908b90615097565b600182015580546147e5908490615097565b81556147f28c8c8c614800565b505050505050505050505050565b826001600160a01b03811661483c5760405162461bcd60e51b81526020600482015260026024820152612d1960f11b6044820152606401611260565b826001600160a01b0381166148785760405162461bcd60e51b81526020600482015260026024820152612d1960f11b6044820152606401611260565b82806000036148ae5760405162461bcd60e51b81526020600482015260026024820152615a3160f01b6044820152606401611260565b6001600160a01b038681166000908152601b6020908152604080832081516101008101835281548152600182015493810193909352600281015483830152600381015460608401526004808201546080850152600582015460a0850152600682015460c085015260079091015460e0840152600b549151636eb1769f60e11b81528a8616918101919091523060248201529193169063dd62ed3e90604401602060405180830381865afa158015614969573d6000803e3d6000fd5b505050506040513d601f19601f8201168201806040525081019061498d91906150aa565b600b546040516370a0823160e01b81526001600160a01b038a81166004830152929350600092909116906370a0823190602401602060405180830381865afa1580156149dd573d6000803e3d6000fd5b505050506040513d601f19601f82011682018060405250810190614a0191906150aa565b9050868210158015614a135750868110155b614a5f5760405162461bcd60e51b815260206004820152601560248201527f746f6e206578636565647320616c6c6f77616e636500000000000000000000006044820152606401611260565b600b54614a77906001600160a01b031689308a614b86565b8260a00151421015614ace57604080516001600160a01b038b81168252602082018a90528a16917f9840f3ca16eed984a6ad48d36928a9cfb427c7f90a8d37e017b3385a747aa294910160405180910390a2614089565b604080516001600160a01b038b81168252602082018a90528a16917f8752a472e571a816aea92eec8dae9baf628e840f4929fbcc2d155e6233ff68a79101611c58565b60008281526004602090815260408083206001600160a01b038516845290915290205460ff16611cb757614b4481614caa565b614b4f836020614cbc565b604051602001614b609291906155dc565b60408051601f198184030181529082905262461bcd60e51b8252611260916004016155a9565b604080516001600160a01b0385811660248301528481166044830152606480830185905283518084039091018152608490920183526020820180516001600160e01b03166323b872dd60e01b1790529151600092839290881691614bea9190615210565b6000604051808303816000865af19150503d8060008114614c27576040519150601f19603f3d011682016040523d82523d6000602084013e614c2c565b606091505b5091509150818015614c56575080511580614c56575080806020019051810190614c569190615249565b614ca25760405162461bcd60e51b815260206004820152601460248201527f5452414e534645525f46524f4d5f4641494c45440000000000000000000000006044820152606401611260565b505050505050565b6060610f526001600160a01b03831660145b60606000614ccb836002615056565b614cd6906002615097565b67ffffffffffffffff811115614cee57614cee615264565b6040519080825280601f01601f191660200182016040528015614d18576020820181803683370190505b509050600360fc1b81600081518110614d3357614d3361527a565b60200101906001600160f81b031916908160001a905350600f60fb1b81600181518110614d6257614d6261527a565b60200101906001600160f81b031916908160001a9053506000614d86846002615056565b614d91906001615097565b90505b6001811115614e16577f303132333435363738396162636465660000000000000000000000000000000085600f1660108110614dd257614dd261527a565b1a60f81b828281518110614de857614de861527a565b60200101906001600160f81b031916908160001a90535060049490941c93614e0f8161565d565b9050614d94565b5083156111fd5760405162461bcd60e51b815260206004820181905260248201527f537472696e67733a20686578206c656e67746820696e73756666696369656e746044820152606401611260565b600060208284031215614e7757600080fd5b81356001600160e01b0319811681146111fd57600080fd5b6001600160a01b038116811461129357600080fd5b600060208284031215614eb657600080fd5b81356111fd81614e8f565b600080600060608486031215614ed657600080fd5b8335614ee181614e8f565b92506020840135614ef181614e8f565b929592945050506040919091013590565b60ff8116811461129357600080fd5b60008060408385031215614f2457600080fd5b8235614f2f81614e8f565b91506020830135614f3f81614f02565b809150509250929050565b60008060408385031215614f5d57600080fd5b8235614f6881614e8f565b91506020830135614f3f81614e8f565b600060208284031215614f8a57600080fd5b5035919050565b60008060408385031215614fa457600080fd5b8235614faf81614e8f565b946020939093013593505050565b60008060408385031215614fd057600080fd5b823591506020830135614f3f81614e8f565b600080600060608486031215614ff757600080fd5b833561500281614e8f565b9250602084013561501281614e8f565b9150604084013561502281614f02565b809150509250925092565b634e487b7160e01b600052601160045260246000fd5b81810381811115610f5257610f5261502d565b8082028115828204841417610f5257610f5261502d565b634e487b7160e01b600052601260045260246000fd5b6000826150925761509261506d565b500490565b80820180821115610f5257610f5261502d565b6000602082840312156150bc57600080fd5b5051919050565b6000602082840312156150d557600080fd5b81516111fd81614e8f565b8051600281900b81146150f257600080fd5b919050565b805161ffff811681146150f257600080fd5b805180151581146150f257600080fd5b600080600080600080600060e0888a03121561513457600080fd5b875161513f81614e8f565b965061514d602089016150e0565b955061515b604089016150f7565b9450615169606089016150f7565b9350615177608089016150f7565b925060a088015161518781614f02565b915061519560c08901615109565b905092959891949750929550565b6000602082840312156151b557600080fd5b6111fd826150e0565b6000806000606084860312156151d357600080fd5b8351925060208401519150604084015161502281614e8f565b60005b838110156152075781810151838201526020016151ef565b50506000910152565b600082516152228184602087016151ec565b9190910192915050565b600060ff82168061523f5761523f61502d565b6000190192915050565b60006020828403121561525b57600080fd5b6111fd82615109565b634e487b7160e01b600052604160045260246000fd5b634e487b7160e01b600052603260045260246000fd5b6020808252825182820181905260009190848201906040850190845b818110156152ce57835163ffffffff16835292840192918401916001016152ac565b50909695505050505050565b604051601f8201601f1916810167ffffffffffffffff8111828210171561530357615303615264565b604052919050565b600067ffffffffffffffff82111561532557615325615264565b5060051b60200190565b600082601f83011261534057600080fd5b815160206153556153508361530b565b6152da565b82815260059290921b8401810191818101908684111561537457600080fd5b8286015b8481101561539857805161538b81614e8f565b8352918301918301615378565b509695505050505050565b600080604083850312156153b657600080fd5b825167ffffffffffffffff808211156153ce57600080fd5b818501915085601f8301126153e257600080fd5b815160206153f26153508361530b565b82815260059290921b8401810191818101908984111561541157600080fd5b948201945b8386101561543f5785518060060b81146154305760008081fd5b82529482019490820190615416565b9188015191965090935050508082111561545857600080fd5b506154658582860161532f565b9150509250929050565b600682810b9082900b03667fffffffffffff198112667fffffffffffff82131715610f5257610f5261502d565b60008160060b8360060b806154b3576154b361506d565b667fffffffffffff198214600019821416156154d1576154d161502d565b90059392505050565b60008260060b806154ed576154ed61506d565b808360060b0791505092915050565b60008160020b627fffff19810361523f5761523f61502d565b60006020828403121561552757600080fd5b815167ffffffffffffffff8082111561553f57600080fd5b818401915084601f83011261555357600080fd5b81518181111561556557615565615264565b615578601f8201601f19166020016152da565b915080825285602082850101111561558f57600080fd5b6155a08160208401602086016151ec565b50949350505050565b60208152600082518060208401526155c88160408501602087016151ec565b601f01601f19169190910160400192915050565b7f416363657373436f6e74726f6c3a206163636f756e74200000000000000000008152600083516156148160178501602088016151ec565b7f206973206d697373696e6720726f6c652000000000000000000000000000000060179184019182015283516156518160288401602088016151ec565b01602801949350505050565b60008161566c5761566c61502d565b50600019019056fea164736f6c6343000812000a",
  "linkReferences": {
    "contracts/libraries/LibPublicSaleVault.sol": {
      "LibPublicSaleVault": [
        {
          "length": 20,
          "start": 8482
        },
        {
          "length": 20,
          "start": 8855
        },
        {
          "length": 20,
          "start": 9112
        }
      ]
    }
  },
  "deployedLinkReferences": {
    "contracts/libraries/LibPublicSaleVault.sol": {
      "LibPublicSaleVault": [
        {
          "length": 20,
          "start": 8430
        },
        {
          "length": 20,
          "start": 8803
        },
        {
          "length": 20,
          "start": 9060
        }
      ]
    }
  }
}